:020000040800F2
:1000000028350020E1010008758D0008B91E0008A0
:10001000418B0008ED0E0008FFAB00080000000057
:10002000000000000000000000000000490100087E
:10003000D5130008000000008D0100082D9700086E
:10004000FB010008FB010008FB010008FB010008A0
:10005000FB010008FB010008FB010008FB01000890
:10006000FB010008FB010008FB010008FB01000880
:10007000FB010008FB010008FB010008FB01000870
:10008000FB010008FB010008FB010008FB01000860
:10009000FB010008FB010008FB010008FB01000850
:1000A000FB010008FB010008FB010008FB01000840
:1000B000B99B0008FB010008F59B0008FB01000844
:1000C000FB010008FB010008FB010008FB01000820
:1000D000FB010008FB010008FB010008FB01000810
:1000E000FB010008FB010008FB010008FB01000800
:1000F000FB010008FB010008FB010008FB010008F0
:10010000FB010008FB010008FB010008FB010008DF
:100110004DAA0008FB010008FB010008FB010008D4
:10012000FB010008FB010008FB010008FB010008BF
:10013000DFF810D000F062FD00480047C9D9000880
:10014000AFF3008028350020224B19680868B0E81A
:10015000F00F80F30988BFF36F8F4FF0000080F33A
:1001600011884EF00D0E7047000000000648006830
:10017000006880F3088862B661B6BFF34F8FBFF3A3
:100180006F8F00DF00BF00BF08ED00E0EFF30980D4
:10019000BFF36F8F0F4B1A6820E9F00F106008B59E
:1001A0004FF0300080F31188BFF34F8FBFF36F8F94
:1001B00011F0B4F94FF0000080F31188BDE8084059
:1001C00019680868B0E8F00F80F30988BFF36F8FF3
:1001D000704700BF00000020EFF30580704700006B
:1001E0000648804706480047FEE7FEE7FEE7FEE7D1
:1001F000FEE7FEE7FEE7FEE7FEE7FEE73D970008C5
:100200003101000840EA01039B0703D009E008C957
:10021000121F08C0042AFAD203E011F8013B00F8CB
:10022000013B521EF9D27047D2B201E000F8012B17
:10023000491EFBD270470022F6E710B513460A4666
:1002400004461946FFF7F0FF204610BD421C10F887
:10025000011B0029FBD1801A704710B5002200E075
:10026000521C835C8C5CA34201D1002BF8D1D8B224
:10027000E1B2401A10BDF0B480EA0102D40F42008E
:10028000B2EB410F02D20246084611464A0042D064
:10029000C30DDDB2C1F3C752AD1A202D35DAC1F35B
:1002A000160141F4000204B15242C5F1200602FADF
:1002B00006F12A411044B3EBD05F23D0C4B1012D25
:1002C000A0EBC35009DCF0BC4FF0004202EAC3527D
:1002D000DBB200F5000000F016BB400000F18070BA
:1002E00000EBC350A0F1807040EAD170490009E0F2
:1002F000490841EAC071A0EBC35000F50000400876
:1003000000EBC350F0BC00F0F5BA6142012202EBF1
:100310004101001BF6E7F0BC704781F00041AAE7FD
:1003200080F00040A7E780EA010210B502F0004328
:10033000400022D04A001FD0010E01EB1261C0F331
:100340005600C2F3560240F4000042F40002A0FB43
:10035000022000047F39140400D0401C50EA1240EF
:1003600001D44000491EC2B20C0604EBD010401C60
:100370004008802A02D003E0002010BD20F00100D8
:10038000002900DA0020184310BD30B480EA0102D1
:1003900002F0004530F0004221F0004013D090B14F
:1003A000C30DD40DC2F31601C0F31600E41A41F4D4
:1003B000000140F400027D34914201D3641C00E04E
:1003C0004900002C02DA30BC002070474FF40000D6
:1003D0000023914201D3891A034340084FEA4101A7
:1003E000F7D151B1914202D14FF0004105E002D264
:1003F0004FF0010101E06FF0010103EBC45028440C
:1004000030BC00F077BA2DE9FE4F804681EA030048
:10041000C00F0C46009021F0004123F00045B8EBDE
:100420000200A94105D24046214690461C460B4693
:10043000024623F00040104347D0270DC7F30A00BF
:10044000C3F30A510290401A019040286BDAC3F3BB
:10045000130040F4801B0098924620B10023D2EB99
:10046000030A63EB0B0B01985946C0F1400250465A
:1004700000F00FFA06460D4650465946019A00F024
:1004800027FA10EB08006141002487EA115284EA40
:10049000E7731A4340D0009A62B3019A012A4FEAE7
:1004A000075215DC001B61EB02014FF0004202EA2B
:1004B0000752CDE90042001C41F5801132462B461F
:1004C00000F05EFA03B0BDE8F08F40462146F9E740
:1004D000001B61EB0201001C41F5801300185B4119
:1004E0002018A2F5001747EB030140EAD570B619B2
:1004F0006D4111E06D084FEA360645EAC0754FEAD6
:100500000752001B61EB0201001C41F580114908F4
:100510004FEA30000019514132462B4603B0BDE886
:10052000F04F00F01EBA0098012240000023D0EBEB
:10053000020263EBE073009821464FEAE074B8EBE7
:10054000000061EB0401E9E783F000435BE781F021
:10055000004158E72DE9FE4F81EA030404F000440E
:1005600021F0004100944FF0000B23F0004350EACB
:1005700001045ED052EA03045BD0C3F30A54C1F312
:100580000A552C44A4F2F3340194A0FB0254C1F3A5
:10059000130141F48011C3F3130343F4801301FBEF
:1005A000024400FB034E840A970A44EA815447EA56
:1005B0008357A4FB076802958D0A05FB07854FEA60
:1005C000932C04FB0C542705029D4FEA065847EA7A
:1005D0001637B5EB08056EEB070C870E920E47EA4F
:1005E000811742EA8312A7FB0201B6EB0B0164EB11
:1005F00000042B0D43EA0C335E1844EB1C50DA4622
:100600005146E7FB0201C5F313044FEA0B3343EAFB
:1006100014534FEA0432019C43EA0603A4F10C048C
:100620000294009CCDE900B400F0AAF903B0BDE843
:10063000F08F00200146F9E7C10F80EAE07008441E
:10064000CA079623002100F05EB9962300221146C6
:1006500000F059B90EB5C10F80EAE0700844CA072E
:10066000002140F233438DE80E000A460B4600F0AD
:1006700087F903B000BD0EB540F23341029100216D
:10068000CDE900110A460B4600F07AF903B000BD2F
:1006900000F0004220F00040C10DC0F3160040F40D
:1006A00000007F2901DA00207047962903DCC1F1A0
:1006B0009601C84001E096398840002AF4D04042B3
:1006C000704720F00040C10DC0F3160040F4000058
:1006D0007F2901DA00207047962903DCC1F19601D9
:1006E000C8407047963988407047C1F30A5210B528
:1006F000C1F3130140F2FF3341F480119A4201DA51
:10070000002010BD40F233439A42A2F2334203DC90
:10071000524200F0CDF810BD904010BD00F00042F4
:1007200030F000400AD0C10D01F56071C0F3160031
:1007300042EA0151C20840071143704700200146B8
:100740007047000030B5041E71F1000404DB4FF067
:100750000044404264EB0101141E73F1000405DB08
:100760001C464FF00043524263EB04038B4208BF28
:10077000824230BD30B5041E71F1000404DB4FF03D
:100780000044404264EB0101141E73F1000405DBD8
:100790001C464FF00043524263EB0403994208BFEA
:1007A000904230BD01F0004330B421F0004150EAE6
:1007B000010206D00A0DA2F56072C1F31301002AEE
:1007C00002DC30BC00207047440F44EAC104C10081
:1007D000E01830BC00EBC25000F08CB8002801DB00
:1007E000C0F10040002901DBC1F1004181427047A6
:1007F000002801DBC0F10040002901DBC1F100410C
:100800008842704730B50B46014600202022012463
:1008100009E021FA02F59D4205D303FA02F5491BCE
:1008200004FA02F52844151EA2F10102F1DC30BDE4
:100830002DE9F05F0546002092469B468846064615
:10084000814640241BE0284641464746224600F0A8
:100850002FF853465A46C01A914110D311461846F4
:10086000224600F016F82D1A67EB01084F46224683
:100870000120002100F00DF817EB00094E41201E69
:10088000A4F10104DFDC484631462A464346BDE870
:10089000F09F202A04DB203A00FA02F10020704782
:1008A0009140C2F1200320FA03F3194390407047AE
:1008B000202A04DB203A21FA02F00021704721FAB5
:1008C00002F3D040C2F1200291400843194670471C
:1008D000202A06DBCB17203A41FA02F043EAE07304
:1008E00006E041FA02F3D040C2F1200291400843F1
:1008F000194670470029A8BF7047401C490008BF2F
:1009000020F00100704710B4B0FA80FC00FA0CF03F
:1009100050EA010404BF10BC704749B1CCF1200477
:1009200021FA04F411FA0CF118BF01212143084304
:10093000A3EB0C01CB1D4FEA00614FEA102042BF30
:10094000002010BC704700EBC35010440029A4BF26
:1009500010BC7047401C490008BF20F0010010BCCB
:10096000704710B5141E73F1000408DA401C41F101
:10097000000192185B411A4301D120F0010010BD23
:100980002DE9F04D92469B4611B1B1FA81F202E099
:10099000B0FA80F220329046FFF77BFF04460F4604
:1009A00040EA0A0041EA0B0153465A46084313D075
:1009B000114653EA010019D0C8F140025046FFF732
:1009C00077FF05460E46504659464246FFF761FFFF
:1009D000084305D0012004E020463946BDE8F08DEB
:1009E0000020054346EAE0762C4337430A98630526
:1009F000E40AA0EB08000022FD0A44EA47540A304A
:100A000002D500200146E9E7010510196941DDE939
:100A1000084500196941BDE8F04DA2E72DE9F04D08
:100A200081EA030404F0004B21F0004514464FF026
:100A3000000A23F0004150EA050220D054EA0102E6
:100A40001DD0C5F30A570246C5F31303C1F31300C3
:100A5000C1F30A5640F4801543F48013A7EB06084F
:100A6000101BD64608F2FD3873EB050002D308F1DF
:100A7000010801E092185B41B8F1000F03DA002091
:100A80000146BDE8F08D00204FF4801106468446F3
:100A90000EE0171B73EB050705D3121B63EB050371
:100AA00006434CEA010C49084FEA300092185B41BA
:100AB00050EA0107EDD152EA030012D082EA0400A5
:100AC00083EA0501084305D0101BAB4106D2012281
:100AD000002306E000224FF0004302E06FF0010225
:100AE00053101AEB06004CEB085110EB0A0041EBD7
:100AF0000B01BDE8F04DFFF734BF70B521F00043A6
:100B000003430CD0C1F30A550024D5EB040564EB74
:100B10000403D617AD1AB34102DB0020014670BDB5
:100B2000201841EB025170BD2DE9F04D00231A460B
:100B30001B1A8A4103DB00200146BDE8F08DC1F39A
:100B40000A52C1F3130141F480154FF0000BD10795
:100B500002D100186D41521E0027044640F2FF11D9
:100B6000384601EB620A3E468046024600204FF4BA
:100B70008011FFF79DFEC2197141BB1846EB0100C1
:100B8000B4EB030C75EB000C04D3E41A65EB000521
:100B900017460E46241908F101006D41804634289D
:100BA000E3DDF91946EB0600091BA84103D24FF01B
:100BB000FF32134601E0002213461BEB070046EB11
:100BC0000A51BDE8F04DFFF7CCBEC1F30A52C1F3A4
:100BD000130140F2FF3341F480119A4202DA0020FF
:100BE0000146704740F233439A42A2F2334202DC9C
:100BF0005242FFF75DBEFFF74CBE0000064C074DAA
:100C000006E0E06840F0010394E8070098471034DC
:100C1000AC42F6D3FFF790FA40460108604601085F
:100C200070B58C1810F8015B15F0070301D110F8AE
:100C3000013B2A1106D110F8012B03E010F8016BDB
:100C400001F8016B5B1EF9D12B0705D40023521E5E
:100C50000DD401F8013BFAE710F8013BCB1A921CC6
:100C600003E013F8015B01F8015B521EF9D5A142C4
:100C7000D8D3002070BD21B1826842F001028260A9
:100C800003E0826822F001028260704721B182682D
:100C900042F48072826003E0826822F48072826093
:100CA0007047000010B504461248844208D1012163
:100CB000401508F05FFA0021601508F05BFA17E0B4
:100CC0000D48844208D10121001508F053FA002193
:100CD000201508F04FFA0BE00848844208D10121A2
:100CE000C80308F047FA00214FF4004008F042FA28
:100CF00010BD00000024014000280140003C0140DC
:100D0000014600208A6802F004020AB1012000E0D6
:100D1000002070470146C86C80B270470246002030
:100D200013680B400BB1012000E000207047014622
:100D300000208A6802F008020AB1012000E00020C9
:100D40007047000030B502460020002350680F4C69
:100D500020400D790C6844EA0524204350609068D7
:100D60000B4C2040D1E902542C434D7944EA450410
:100D700020439060D06A20F470000C7C641EE4B2C2
:100D8000234340EA0350D06230BD0000FFFEF0FF75
:100D9000FDF7F1FFF0B504460D4600200021092DB6
:100DA00011DDE068A5F10A0606EB4607072606FAFC
:100DB00007F18843A5F10A0606EB460603FA06F199
:100DC0000843E0600CE0206905EB4507072606FABA
:100DD00007F1884305EB450603FA06F10843206155
:100DE000072A0FDA606B561E06EB86071F2606FAE7
:100DF00007F18843561E06EB860605FA06F10843FE
:100E0000606322E00D2A0FDA206BD61F06EB8607FF
:100E10001F2606FA07F18843D61F06EB860605FA59
:100E200006F10843206310E0E06AA2F10D0606EB2C
:100E300086071F2606FA07F18843A2F10D0606EB86
:100E4000860605FA06F10843E062F0BD816841F0CC
:100E500008018160704721B1826842F4A00282607B
:100E600003E0826822F4A00282607047816841F04A
:100E7000040181607047000031E0194800780328C0
:100E800025D1174AD169D068FFF7B2FC0FD81449B1
:100E9000C8681449FFF7A2FC1ED201201049C87689
:100EA00088700CF09DFE0F480D49C86114E00C4994
:100EB000C8680D49FFF792FC0ED200200849C87699
:100EC00088700CF095FE08480549C86104E00020D0
:100ED0000349C8760448C86164200BF0CFFBCCE717
:100EE000CC3000200000FA440000E64200BFFEE7DC
:100EF00010B505200BF0E2FB10BD000010B500207E
:100F00000F4908600F48006820F0F0000D490860A4
:100F10000846006840F030000860FFF7E9FF002055
:100F20000949C1F8A401FFF7E3FF01200449086063
:100F3000FFF7DEFF00200549C1F8840110BD000065
:100F400084812142041C0140008023420080214210
:100F500008B50121882008F0FDF80220ADF8000056
:100F600010208DF8030003208DF8020069460A481E
:100F700000F014FB0221084800F0E0FB4FF4007081
:100F8000ADF800006946054800F008FB4FF4007119
:100F9000024800F0D3FB08BD000C0140001C0140DA
:100FA00010B500200F4908600F48006820F0F000DD
:100FB0000D4908600846006840F030000860FFF7FF
:100FC00097FF01200949C1F8A401FFF791FF012013
:100FD00004490860FFF78CFF00200549C1F884012F
:100FE00010BD000084812142041C01400080234286
:100FF0000080214270B5054600241648006820F0A4
:10100000F000144908600846006840F0800008605D
:101010001E200BF053FB002611E000200E49086053
:10102000FFF766FF01200D49C1F884016006040E38
:101030000B48006808B1601CC4B2701CC6B2082E10
:10104000EBDB15B9FFF7ACFF01E0FFF757FF2046D8
:1010500070BD0000041C01408481214200802142B7
:101060002481234270B504461348006820F0F00044
:10107000114908600846006840F030000860002010
:101080000E490860FFF734FF002511E0E0090C4924
:1010900008606006040E01200A49C1F88401FFF7C8
:1010A00027FF002005490860FFF722FF681CC5B232
:1010B000082DEBDB70BD0000041C0140848121423F
:1010C000A48123420080214210B50F48006820F01F
:1010D000F0000D4908600846006840F030000860E4
:1010E00001200A4908600A49C1F884011E200BF05A
:1010F000E5FA002005490860FFF7FAFE00200449E0
:10110000C1F8840110BD0000041C0140A4812342E9
:101110000080214210B50D48006820F0F0000B4916
:1011200008600846006840F0300008600120084967
:1011300008601E200BF0C2FA00200649C1F8A40185
:10114000FFF7D6FE01200449086010BD041C0140D1
:101150008481214200802342A481234210B50024CF
:101160001348006820F0F000114908600846006844
:1011700040F08000086001200E4908600E49C1F867
:101180008401FFF7B5FE09E0601CC4B2FA2C03DD50
:10119000FFF7C0FF012010BDFFF7AAFE0548803809
:1011A00000680028F0D10549086000BFF3E700009F
:1011B000041C0140A48123420080214284812142F9
:1011C00070B506460D46144629463046FFF706FB25
:1011D00001D2284670BD21463046FFF709FB01D2F7
:1011E0002046F7E73046F5E700F0805111B103499A
:1011F000086001E0024948607047000004040240B2
:101200000000024021B1026842F00102026004E0E5
:1012100002684FF6FE731A400260704701684FF68D
:10122000FE72114001600021016041608160C16077
:101230004B49884208D14A490839496841F00F01B1
:10124000474A083A51608AE045491431884208D13A
:1012500043490839496841F0F001414A083A516070
:101260007DE03F492831884208D13D490839496825
:1012700041F470613A4A083A516070E038493C31B3
:10128000884208D136490839496841F47041344AE6
:10129000083A516063E032495031884208D1304900
:1012A0000839496841F470212D4A083A516056E0E6
:1012B0002B496431884208D129490839496841F4E9
:1012C0007001274A083A516049E02549783188423F
:1012D00008D123490839496841F07061204A083A29
:1012E00051603CE01F49884206D1011F096841F066
:1012F0000F01021F116032E01A491431884208D1EF
:101300001849091F096841F0F001164A121F1160BF
:1013100025E014492831884208D11249091F09687B
:1013200041F470610F4A121F116018E00D493C3101
:10133000884208D10B49091F096841F47041094AE4
:10134000121F11600BE007495031884207D105494F
:10135000091F096841F47021024A121F1160704789
:10136000080002400804024001460020002201F06B
:10137000805313B1054B1A6801E0054B1A6802EA65
:1013800001030BB1012000E000207047000402407F
:101390000000024010B50022026847F6F0739A433D
:1013A0000C6A8B6823430C6923434C6923438C6983
:1013B0002343CC6923434C6A23438C6A23431A4357
:1013C0000260CB6843600B6883604B68C36010BDEC
:1013D000416070477047000051B18200A2F1C042E5
:1013E000126842F001038200A2F1C042136009E0DA
:1013F0008200A2F1C0421268034B1A408300A3F19D
:10140000C0431A6070470000FEFF0F00D0E90112D0
:101410001143C26811430269114342691143826951
:101420001143C2691143026A1143426A1143826A3D
:101430001143C26A1143026B114302689200A2F188
:10144000C0421160816808290BD101688900A1F1AF
:10145000C041096841F0400201688900A1F1C04122
:101460000A60416B0968426B526841EA0211426BA3
:10147000926841EA0221426B928941EA0241426B41
:10148000128A41EA0251426B127D41EA0261426BCB
:10149000926911430268521C9200A2F1C04211608D
:1014A000C16AB1F5804F1BD1816B0968826B5268AC
:1014B00041EA0211826B926841EA0221826B128A30
:1014C00041EA0251826B127D41EA0261826B9269AC
:1014D000114302689200A2F1C042C2F8041107E071
:1014E0006FF0704201688900A1F1C041C1F8042188
:1014F00070472DE9F04106460F461546FFF7E4FD1B
:101500007020FFF7AFFDFFF729FEF0B2FFF7AAFD4D
:10151000FFF724FEFFF7D8FD7120FFF7A3FDFFF7CB
:101520001DFE00240BE0691EA14201D0012100E054
:1015300000210846FFF75EFD3855601CC4B2AC427E
:10154000F1DBFFF7E7FDBDE8F0812DE9F04105464D
:101550000E4617464FF00008FFF7B6FD7020FFF764
:1015600081FDFFF7FBFDE8B2FFF77CFDFFF7F6FD1D
:1015700000240BE0305DFFF775FDFFF7EFFD8046BF
:10158000B8F1000F00D003E0601CC4B2BC42F1DB34
:1015900000BFFFF7BFFD4046BDE8F0812DE9F041F7
:1015A000024600250026002000230024002791F891
:1015B00003C00CF00F0591F803C00CF0100CBCF147
:1015C000000F03D091F802C04CEA050591F800C065
:1015D000BCF1000F31D0146800202BE04FF0010C5B
:1015E0000CFA00F3B1F800C00CEA03069E4220D1C9
:1015F00083004FF00F0C0CFA03F7BC4305FA03FC11
:101600004CEA040491F803C0BCF1280F06D14FF056
:10161000010C0CFA00FCC2F814C00AE091F803C0F7
:10162000BCF1480F05D14FF0010C0CFA00FCC2F8D8
:1016300010C0401C0828D1D31460B1F800C0BCF120
:10164000FF0F34DD546800202EE000F1080C4FF04D
:10165000010808FA0CF3B1F800C00CEA03069E4238
:1016600021D183004FF00F0C0CFA03F7BC4305FAAD
:1016700003FC4CEA040491F803C0BCF1280F05D127
:1016800000F1080C08FA0CF8C2F8148091F803C0B5
:10169000BCF1480F07D100F1080C4FF0010808FA1F
:1016A0000CF8C2F81080401C0828CED35460BDE866
:1016B000F08100000146154A881A91421AD009DCCF
:1016C0001348084480B1B0F5806F0FD0B0F5006FBB
:1016D00019D10DE0B0F5806F0ED0B0F5006F0DD0D0
:1016E000B0F5406F0FD10BE0042070470820FCE7F5
:1016F0001020FAE72020F8E74020F6E78020F4E702
:101700004FF48070F1E70020EFE700000014014083
:1017100000F8FEBF0246002093680B400BB1012089
:1017200000E00020704702460020D3680B400BB158
:10173000012000E00020704741617047016170475F
:101740002DE9F04105460F461646FFF7BDFC28205F
:10175000FFF788FCFFF702FD2812FFF783FCFFF775
:10176000FDFCE8B2FFF77EFCFFF7F8FCFFF7ACFCEE
:101770002920FFF777FCFFF7F1FC00240BE0711E36
:10178000A14201D0012100E000210846FFF732FC10
:101790003855601CC4B2B442F1DBFFF7BBFCBDE8B6
:1017A000F081000038B50546002400208DF80000C7
:1017B0008DF8015000BF09E09DF800000F49095D58
:1017C0000844C0B28DF80000601CC4B2B82CF3D33A
:1017D0009DF80000C043401CC0B28DF80000B82244
:1017E000064948F2470000F00BF80222694648F229
:1017F000FF0000F005F8002038BD00003E2B010876
:101800002DE9F04104460E4617464FF00008FFF759
:101810005BFC2820FFF726FCFFF7A0FC2012FFF757
:1018200021FCFFF79BFCE0B2FFF71CFCFFF796FCE6
:1018300000250BE0705DFFF715FCFFF78FFC80467D
:10184000B8F1000F00D003E0681CC5B2BD42F1DB67
:1018500000BFFFF75FFC4046BDE8F0812DE9F05F77
:1018600005460E4691469B4600240FFA89F7032051
:10187000A0EB49000FFA80FA97E00A98002848D0B8
:10188000A04643E006EB080291B22A1990B25A46EC
:1018900000F03AFA06EB080291B22A1B90B25A46BF
:1018A00000F032FA321991B2A5EB080290B25A4612
:1018B00000F02AFA321B91B2A5EB080290B25A4608
:1018C00000F022FAA6EB080291B22A1B90B25A4607
:1018D00000F01AFAA6EB080291B22A1990B25A4601
:1018E00000F012FA321B91B205EB080290B25A4690
:1018F00000F00AFA321991B205EB080290B25A468A
:1019000000F002FA08F101000FFA80F8B845B9DDDD
:1019100037E0F21991B22A1990B25A4600F0F4F960
:10192000F21991B22A1B90B25A4600F0EDF9321921
:1019300091B2EA1B90B25A4600F0E6F9321B91B21E
:10194000EA1B90B25A4600F0DFF9F21B91B22A1B53
:1019500090B25A4600F0D8F9F21B91B22A1990B20F
:101960005A4600F0D1F9321B91B2EA1990B25A46A8
:1019700000F0CAF9321991B2EA1990B25A4600F051
:10198000C3F9BAF1000F05DAA000801D50440FFA28
:1019900080FA07E0E01B80000A3050440FFA80FA1A
:1019A000781E07B2601C04B200BFBC427FF765AF6F
:1019B000BDE8F09F2DE9FF4F85B081468A464FF084
:1019C000000B002001900798A0EB09050898A0EBF8
:1019D0000A06CDF80C90CDF808A0002D01DD0127F6
:1019E00005E00DB9002702E04FF0FF376D42002EF1
:1019F00002DD4FF0010806E016B94FF0000802E0E2
:101A00004FF0FF387642B54201DD2C4600E0344607
:101A1000002004901EE0129ADDE9021000F074F933
:101A2000AB44019830440190A34505DDABEB040BBA
:101A30000398384480B203900198A04206DD0198D3
:101A4000001B01900298404480B202900498401C10
:101A500080B20490611C04988842DCDD09B0BDE8C6
:101A6000F08F01460C2908D0102902D0182906D180
:101A700001E0082070470C20FCE70620FAE7082068
:101A8000F8E710B50246012000E050430B1EA1F11B
:101A90000104E1B2F9D110BD2DE9FF4F82B08046BB
:101AA0000E469246109C57460C2C06D0102C04D0A3
:101AB000182C02D006B0BDE8F08FB1462046E317DF
:101AC00004EB5373DB1021464FEAE47C04EB5C7CAF
:101AD0004FEAEC0CA4EBCC0CBCF1000F02D04FF0A1
:101AE000010C01E04FF0000C6344224604EBD27C71
:101AF0004FEA6C0C03FB0CF3DBB20093A7F1200060
:101B0000C7B2002554E00C2C07D107EB47002B4946
:101B100001EB8000405D019012E0102C05D12848B7
:101B200000EB0710405D01900AE0182C07D107EB8D
:101B3000C700244901EB8000405D019000E0B9E757
:101B40004FF0000B2EE0019800F0800028B13146E4
:101B50004046059A00F0F6F806E0119820B93146A3
:101B600040460F9A00F0EEF801984006000E0190F2
:101B7000701C86B214484088B04200DC9AE7A6EB9D
:101B80000900A0420AD14E4608F101001FFA80F870
:101B90000D480088404500DC8CE706E00BF10100B1
:101BA00000F0FF0BBBF1080FCDDB00BF681CC5B216
:101BB00000988542A7DB00BF7CE700000A2C0108E3
:101BC0007E3001086E360108643000202DE9FF4F99
:101BD00087B015461E46DDE91689149F3846FFF783
:101BE00040FF82460020069007980490002D10DAEE
:101BF000CDE90179CDF800802D22159BDDE90701A3
:101C0000FFF74AFF0498504480B204906842059060
:101C100000E00595002437E0301B401EC1B20A20C9
:101C2000FFF72FFF0599B1FBF0F00A21B0FBF1F2AD
:101C300001FB120B0698A8B9701EA04212DDBBF181
:101C4000000F0DD1CDE90179CDF8008004990AFB90
:101C5000041188B22022159B0899FFF71DFF11E09F
:101C6000012006900BF13001CAB2CDE90179CDF81F
:101C7000008004990AFB041188B2159B0899FFF7AC
:101C80000BFF00BF601CC4B2B442C5DB0BB0BDE8A3
:101C9000F08F2DE9FF4F84B004460E461546DDE96E
:101CA00013B8DDE911A7DDF85490E0B2039008EB1A
:101CB00004001FFA80F809EB06001FFA80F918E00B
:101CC000444502DB039CF01986B24E4500DB16E06A
:101CD000CDE9017BCDF800A02A7831462046079B4C
:101CE000FFF7DAFE384607EBD07104EB61018CB2E6
:101CF0006D1C28787E2802DC28782028E0DA00BFD6
:101D000008B0BDE8F08F000070B506460C461546D9
:101D10000A480088B04203DD08484088A04200DC41
:101D200070BD2146304606F007FE0448008904498C
:101D30000880881C058000BFF2E7000064300020A6
:101D4000FE07006C10B55A4B9B8849F24134A34200
:101D50000BD0574B9B8845F21034A34205D0544B0F
:101D60009B8849F28844A34212D1514B5B89514C64
:101D700023800312A41C2380C3B223804C4B9B8975
:101D8000A41E23800B12A41C2380CBB2238087E0E7
:101D9000474B9B8845F21054A3421ED1444B5B89AC
:101DA000444C23800312A41C2380414B5B895B1CA1
:101DB000A41E2380C3B2A41C23803D4B9B89A41E78
:101DC00023800B12A41C2380394B9B895B1CA41E0F
:101DD0002380CBB2A41C238062E0354B9B8841F664
:101DE0006314A34222D1324B9B7923B9304B1B8819
:101DF0005B1E1B1A98B22E4B5B892E4C238003125C
:101E0000A41C2380C3B2238003122380C3B2238087
:101E1000274B9B89A41E23800B12A41C2380CBB2CA
:101E200023800B122380CBB2238039E0204B9B8888
:101E300046F60404A3421BD11D4B9B79012B04D110
:101E40001B4B1B885B1E1B1A98B2194B5B89194CE4
:101E500023800312A41C2380C3B22380144B9B89CC
:101E6000A41E23800B12A41C2380CBB2238017E076
:101E70000F4B9B79012B04D10D4B1B885B1E1B1A4A
:101E800098B200BF0A4B5B890A4C2380A31C1880C0
:101E900000BF00BF064B9B892380A31C198000BF95
:101EA000034B1B89034C2380A31C1A8010BD000028
:101EB00064300020FE07006C00BFFEE710B54FF451
:101EC000407006F09DFF0AF0ABFB0BF0C1FC6423F1
:101ED0000022472140F2E73008F038FC0BF050FEBA
:101EE00000214FF6FF7008F095FC0D4806F022FE29
:101EF0000C4806F01FFE0BF005FA0BF0F1F90BF0A1
:101F000085FC094881688847C8200AF0B7FB0BF0B8
:101F1000A1FFC8200AF0B2FB0AF0F4F910BD0000DE
:101F2000B8000020C00000201802002021B1028863
:101F300042F00102028004E002884FF6FE731A406C
:101F40000280704710B504460B48844209D1012134
:101F5000480507F0EFF800214FF4001007F0EAF809
:101F600008E00121880507F0E5F800214FF4800022
:101F700007F0E0F810BD0000005400402DE9F041EA
:101F80008046D8F80040D8F80460B8F808000BF094
:101F9000C0F80546B8F80A000BF0BBF8074600BFCA
:101FA000A148844206D10020A04A02EB8501C1F875
:101FB00080013AE09E48844206D100209D4A02EB0F
:101FC0008501C1F8800130E09B48844206D10020A1
:101FD0009A4A02EB8501C1F8800126E098488442C4
:101FE00006D10020974A02EB8501C1F880011CE070
:101FF0009548844206D10020944A02EB8501C1F83D
:10200000800112E09248844206D10020914A02EBFE
:102010008501C1F8800108E08F48844205D1002085
:102020008E4A02EB8501C1F8800100BF00BF082F76
:102030000CDA3068BA000F21914088433060306874
:10204000BA0003219140084330600FE07068A7F1A7
:1020500008018A000F219140884370607068A7F1E1
:1020600008018A00032191400843706000BF00BF4F
:102070006D48864206D100206C4A02EB8701C1F808
:1020800080013AE06A48864206D10020694A02EBA4
:102090008701C1F8800130E06748864206D1002000
:1020A000664A02EB8701C1F8800126E06448864257
:1020B00006D10020634A02EB8701C1F880011CE0D1
:1020C0006148864206D10020604A02EB8701C1F8D0
:1020D000800112E05E48864206D100205D4A02EB94
:1020E0008701C1F8800108E05B48864205D10020E5
:1020F0005A4A02EB8701C1F8800100BF02200AF0B2
:10210000DDFA00BF4848844206D10120474A02EB6D
:102110008501C1F880013AE04548844206D101209A
:10212000444A02EB8501C1F8800130E04248844214
:1021300006D10120414A02EB8501C1F8800126E069
:102140003F48844206D101203E4A02EB8501C1F896
:1021500080011CE03C48844206D101203B4A02EB4E
:102160008501C1F8800112E03948844206D101207E
:10217000384A02EB8501C1F8800108E03648844204
:1021800005D10120354A02EB8501C1F8800100BF6D
:1021900002200AF093FA00BF2348844206D10020AF
:1021A000224A02EB8501C1F880013AE020488442CE
:1021B00006D100201F4A02EB8501C1F8800130E002
:1021C0001D48844206D100201C4A02EB8501C1F85B
:1021D000800126E01A48844206D10020194A02EB09
:1021E0008501C1F880011CE01748844206D1002017
:1021F000164A02EB8501C1F8800112E014488442BE
:1022000006D10020134A02EB8501C1F8800108E0E5
:102210001148844205D10020104A02EB8501C1F823
:10222000800100BFBDE8F0810008014000002142AC
:10223000000C0140008021420010014000002242B9
:102240000014014000802242001801400000234297
:10225000001C014000802342002001400000244275
:102260002DE9F04385B004460D460026B14604270B
:10227000DFF8CC80A6884FF6C0700640684606F0AE
:1022800089FFDDF808802F48B8FBF0F01FFA80F9CD
:1022900046EA0906A68020884FF6FE710840208095
:1022A00000262949286888420CD828684000B8FBD5
:1022B000F0F087B2042F00DA04273E4309F1010051
:1022C000208427E0E8884BF6FF71884206D1286811
:1022D00000EB4000B8FBF0F087B209E0286800EBA3
:1022E000C00101EB0010B8FBF0F087B247F4804763
:1022F000C7F30B0008B947F0010747F40040064355
:102300004FF4967009FB00F04FF47A7190FBF1F0F6
:10231000401C2084A683208840F00100208026886D
:102320004FF6F5300640A8886989084306432680A1
:10233000A88929890843208105B0BDE8F083000001
:1023400000127A0040420F00A08601002DE9F04102
:102350008046D8F80040D8F80460B8F808000AF0C1
:10236000D8FE0546B8F80A000AF0D3FE074600BFBB
:10237000A148844206D10020A04A02EB8501C1F8A1
:1023800080013AE09E48844206D100209D4A02EB3B
:102390008501C1F8800130E09B48844206D10020CD
:1023A0009A4A02EB8501C1F8800126E098488442F0
:1023B00006D10020974A02EB8501C1F880011CE09C
:1023C0009548844206D10020944A02EB8501C1F869
:1023D000800112E09248844206D10020914A02EB2B
:1023E0008501C1F8800108E08F48844205D10020B2
:1023F0008E4A02EB8501C1F8800100BF00BF082FA3
:102400000CDA3068BA000F219140884330603068A0
:10241000BA0003219140084330600FE07068A7F1D3
:1024200008018A000F219140884370607068A7F10D
:1024300008018A00032191400843706000BF00BF7B
:102440006D48864206D101206C4A02EB8701C1F833
:1024500080013AE06A48864206D10120694A02EBCF
:102460008701C1F8800130E06748864206D101202B
:10247000664A02EB8701C1F8800126E06448864283
:1024800006D10120634A02EB8701C1F880011CE0FC
:102490006148864206D10120604A02EB8701C1F8FB
:1024A000800112E05E48864206D101205D4A02EBBF
:1024B0008701C1F8800108E05B48864205D1012010
:1024C0005A4A02EB8701C1F8800100BF02200AF0DE
:1024D000F5F800BF4848844206D10120474A02EB84
:1024E0008501C1F880013AE04548844206D10120C7
:1024F000444A02EB8501C1F8800130E04248844241
:1025000006D10120414A02EB8501C1F8800126E095
:102510003F48844206D101203E4A02EB8501C1F8C2
:1025200080011CE03C48844206D101203B4A02EB7A
:102530008501C1F8800112E03948844206D10120AA
:10254000384A02EB8501C1F8800108E03648844230
:1025500005D10120354A02EB8501C1F8800100BF99
:1025600002200AF0ABF800BF2348844206D10020C5
:10257000224A02EB8501C1F880013AE020488442FA
:1025800006D100201F4A02EB8501C1F8800130E02E
:102590001D48844206D100201C4A02EB8501C1F887
:1025A000800126E01A48844206D10020194A02EB35
:1025B0008501C1F880011CE01748844206D1002043
:1025C000164A02EB8501C1F8800112E014488442EA
:1025D00006D10020134A02EB8501C1F8800108E012
:1025E0001148844205D10020104A02EB8501C1F850
:1025F000800100BFBDE8F0810008014000002142D9
:10260000000C0140008021420010014000002242E5
:1026100000140140008022420018014000002342C3
:10262000001C0140008023420020014000002442A1
:102630002DE9F84F814688469246D9F80050D9F8DE
:102640000440B9F808000AF064FD0646B9F80A002B
:102650000AF05FFD07464FF0000B002088F80000ED
:1026600000BF082F0CDA2068BA000F219140884380
:1026700020602068BA0008219140084320600FE0E4
:102680006068A7F108018A000F21914088436060CB
:102690006068A7F108018A00082191400843606042
:1026A00000BF4FF0000BEBE000BF7D48854206D134
:1026B00000207C4A02EB8601C1F880013AE07A48AA
:1026C000854206D10020794A02EB8601C1F88001DB
:1026D00030E07748854206D10020764A02EB860139
:1026E000C1F8800126E07448854206D10020734A73
:1026F00002EB8601C1F880011CE07148854206D1D9
:102700000020704A02EB8601C1F8800112E06E4899
:10271000854206D100206D4A02EB8601C1F8800196
:1027200008E06B48854205D100206A4A02EB860129
:10273000C1F8800100BF022009F0C0FF00BF584867
:10274000854206D10120574A02EB8601C1F880017B
:102750003AE05548854206D10120544A02EB8601F1
:10276000C1F8800130E05248854206D10120514A2B
:1027700002EB8601C1F8800126E04F48854206D170
:1027800001204E4A02EB8601C1F880011CE04C4852
:10279000854206D101204B4A02EB8601C1F8800137
:1027A00012E04948854206D10120484A02EB8601E1
:1027B000C1F8800108E04648854205D10120454A1C
:1027C00002EB8601C1F8800100BF98F800004006C6
:1027D000000E88F8000000BF3148844206D131491C
:1027E00001EB8700D0F8000100903AE02E488442C7
:1027F00006D12E4901EB8700D0F80001009030E0AF
:102800002B48844206D12B4901EB8700D0F8000108
:10281000009026E02848844206D1284901EB870031
:10282000D0F8000100901CE02548844206D12549DB
:1028300001EB8700D0F80001009012E022488442AA
:1028400006D1224901EB8700D0F80001009008E092
:102850001F48844205D11F4901EB8700D0F80001D1
:10286000009000BF009820B198F80000401C88F844
:102870000000012009F022FF0BF1010000F0FF0B26
:10288000BBF1080FFFF610AFBAF1000F03D04846B6
:10289000FFF774FB02E04846FFF758FDBDE8F88FEC
:1028A0000008014000002142000C0140008021424C
:1028B000001001400000224200140140008022422A
:1028C0000018014000002342001C01400080234208
:1028D00000200140000024422DE9F047804689464F
:1028E000D8F80050D8F80440B8F808000AF011FCF5
:1028F0000646B8F80A000AF00CFC074600BF082F8D
:102900000CDA2068BA000F219140884320602068CB
:10291000BA0003219140084320600FE06068A7F1EE
:1029200008018A000F219140884360606068A7F128
:1029300008018A00032191400843606000BF00BF86
:10294000BF48854206D10020BE4A02EB8601C1F88D
:1029500080013AE0BC48854206D10020BB4A02EB28
:102960008601C1F8800130E0B948854206D10020D7
:10297000B84A02EB8601C1F8800126E0B6488542DC
:1029800006D10020B54A02EB8601C1F880011CE0A7
:10299000B348854206D10020B24A02EB8601C1F855
:1029A000800112E0B048854206D10020AF4A02EB18
:1029B0008601C1F8800108E0AD48854205D10020BC
:1029C000AC4A02EB8601C1F8800100BF4FF0000A5B
:1029D00030E14FEAD91090B300BF9948844206D144
:1029E0000120984A02EB8701C1F880013BE096483C
:1029F000844206D10120954A02EB8701C1F880018B
:102A000031E09348844206D10120924A02EB8701CB
:102A1000C1F8800127E09048844206D101208F4A06
:102A200002EB8701C1F880011DE08D48844207D187
:102A300001208C4A02EB8701C1F8800113E013E00A
:102A40008948844206D10120884A02EB8701C1F8F7
:102A5000800108E08648844205D10120854A02EBC6
:102A60008701C1F8800146E000BF7548844206D165
:102A70000020744A02EB8701C1F880013AE07248F5
:102A8000844206D10020714A02EB8701C1F880011F
:102A900030E06F48844206D100206E4A02EB870185
:102AA000C1F8800126E06C48844206D100206B4AC0
:102AB00002EB8701C1F880011CE06948844206D11D
:102AC0000020684A02EB8701C1F8800112E06648E5
:102AD000844206D10020654A02EB8701C1F88001DB
:102AE00008E06348844205D10020624A02EB870176
:102AF000C1F8800100BF4FEA49604FEA1069022027
:102B000009F0DCFD00BF4E48854206D101204D4A48
:102B100002EB8601C1F880013AE04B48854206D1BC
:102B200001204A4A02EB8601C1F8800130E04848A2
:102B3000854206D10120474A02EB8601C1F8800197
:102B400026E04548854206D10120444A02EB860131
:102B5000C1F880011CE04248854206D10120414A6B
:102B600002EB8601C1F8800112E03F48854206D1A0
:102B700001203E4A02EB8601C1F8800108E03C4892
:102B8000854205D101203B4A02EB8601C1F8800154
:102B900000BF022009F092FD00BF2948854206D1FE
:102BA0000020284A02EB8601C1F880013AE026485D
:102BB000854206D10020254A02EB8601C1F880013A
:102BC00030E02348854206D10020224A02EB8601EC
:102BD000C1F8800126E02048854206D100201F4A26
:102BE00002EB8601C1F880011CE01D48854206D138
:102BF00000201C4A02EB8601C1F8800112E01A484D
:102C0000854206D10020194A02EB8601C1F88001F5
:102C100008E01748854205D10020164A02EB8601DC
:102C2000C1F8800100BF022009F048FD0AF101004F
:102C300000F0FF0ABAF1080FFFF6CBAEBDE8F0874F
:102C40000008014000002142000C014000802142A8
:102C50000010014000002242001401400080224286
:102C60000018014000002342001C01400080234264
:102C700000200140000024422DE9F0418046D8F8B0
:102C80000060D8F80440B8F808000AF042FA074695
:102C9000B8F80A000AF03DFA054600BF082D0CDA24
:102CA0002068AA000F219140884320602068AA0074
:102CB00003219140084320600FE06068A5F10801FE
:102CC0008A000F219140884360606068A5F1080187
:102CD0008A00032191400843606000BF00BF914813
:102CE000844206D10120904A02EB8501C1F880019F
:102CF0003AE08E48844206D101208D4A02EB8501DC
:102D0000C1F8800130E08B48844206D101208A4A14
:102D100002EB8501C1F8800126E08848844206D193
:102D20000120874A02EB8501C1F880011CE085483B
:102D3000844206D10120844A02EB8501C1F880015A
:102D400012E08248844206D10120814A02EB8501CB
:102D5000C1F8800108E07F48844205D101207E4A05
:102D600002EB8501C1F8800100BF00BF6D488642BB
:102D700006D101206C4A02EB8701C1F880013AE0DC
:102D80006A48864206D10120694A02EB8701C1F8F0
:102D9000800130E06748864206D10120664A02EB96
:102DA0008701C1F8800126E06448864206D10120EF
:102DB000634A02EB8701C1F880011CE0614886424A
:102DC00006D10120604A02EB8701C1F8800112E0C0
:102DD0005E48864206D101205D4A02EB8701C1F8B8
:102DE000800108E05B48864205D101205A4A02EB87
:102DF0008701C1F8800100BF042009F05FFC00BF1B
:102E00004848844206D10020474A02EB8501C1F8B8
:102E100080013AE04548844206D10020444A02EB52
:102E20008501C1F8800130E04248844206D100208B
:102E3000414A02EB8501C1F8800126E03F48844207
:102E400006D100203E4A02EB8501C1F880011CE05A
:102E50003C48844206D100203B4A02EB8501C1F880
:102E6000800112E03948844206D10020384A02EB42
:102E70008501C1F8800108E03648844205D1002070
:102E8000354A02EB8501C1F8800100BF042009F03A
:102E900015FC00BF2348864206D10020224A02EBDF
:102EA0008701C1F880013AE02048864206D100201F
:102EB0001F4A02EB8701C1F8800130E01D488642BD
:102EC00006D100201C4A02EB8701C1F8800126E0F0
:102ED0001A48864206D10020194A02EB8701C1F840
:102EE00080011CE01748864206D10020164A02EBFA
:102EF0008701C1F8800112E01448864206D1002003
:102F0000134A02EB8701C1F8800108E011488642AC
:102F100005D10020104A02EB8701C1F8800100BFF3
:102F2000BDE8F0810008014000002142000C014092
:102F300000802142001001400000224200140140A4
:102F4000008022420018014000002342001C014082
:102F50000080234200200140000024422DE9F0417E
:102F60008046D8F80060D8F80440B8F808000AF0A5
:102F7000D0F80746B8F80A000AF0CBF8054600BFBB
:102F8000082D0CDA2068AA000F21914088432060A8
:102F90002068AA0003219140084320600FE0606888
:102FA000A5F108018A000F219140884360606068A4
:102FB000A5F108018A00032191400843606000BF29
:102FC00000BF9148864206D10020904A02EB87015B
:102FD000C1F880013AE08E48864206D100208D4A31
:102FE00002EB8701C1F8800130E08B48864206D1B0
:102FF00000208A4A02EB8701C1F8800126E0884858
:10300000864206D10020874A02EB8701C1F8800181
:103010001CE08548864206D10020844A02EB8701E5
:10302000C1F8800112E08248864206D10020814A20
:1030300002EB8701C1F8800108E07F48864205D194
:1030400000207E4A02EB8701C1F8800100BF00BF6B
:103050006D48844206D100206C4A02EB8501C1F81C
:1030600080013AE06A48844206D10020694A02EBB6
:103070008501C1F8800130E06748844206D1002014
:10308000664A02EB8501C1F8800126E0644884426B
:1030900006D10020634A02EB8501C1F880011CE0E3
:1030A0006148844206D10020604A02EB8501C1F8E4
:1030B000800112E05E48844206D100205D4A02EBA6
:1030C0008501C1F8800108E05B48844205D10020F9
:1030D0005A4A02EB8501C1F8800100BF042009F0C3
:1030E000EDFA00BF4848864206D10120474A02EB6C
:1030F0008701C1F880013AE04548864206D10120A7
:10310000444A02EB8701C1F8800130E04248864220
:1031100006D10120414A02EB8701C1F8800126E077
:103120003F48864206D101203E4A02EB8701C1F8A2
:1031300080011CE03C48864206D101203B4A02EB5C
:103140008701C1F8800112E03948864206D101208A
:10315000384A02EB8701C1F8800108E03648864210
:1031600005D10120354A02EB8701C1F8800100BF7B
:1031700000BF2548844206D10120244A02EB850184
:10318000C1F880013AE02248844206D10120214A58
:1031900002EB8501C1F8800130E01F48844206D16E
:1031A00001201E4A02EB8501C1F8800126E01C487F
:1031B000844206D101201B4A02EB8501C1F880013F
:1031C0001CE01948844206D10120184A02EB85010F
:1031D000C1F8800112E01648844206D10120154A48
:1031E00002EB8501C1F8800108E01348844205D153
:1031F0000120124A02EB8501C1F8800100BF0420C2
:1032000009F05CFABDE8F0810008014000002142AD
:10321000000C0140008021420010014000002242C9
:1032200000140140008022420018014000002342A7
:10323000001C014000802342002001400000244285
:103240002DE9F0478046D8F80060D8F80440B8F877
:10325000080009F05EFF0746B8F80A0009F059FFB8
:1032600005464FF0000900BF082D0CDA2068AA00BF
:103270000F219140884320602068AA0008219140D6
:10328000084320600FE06068A5F108018A000F2163
:103290009140884360606068A5F108018A000821B8
:1032A00091400843606000BF00BF9748844206D148
:1032B0000120964A02EB8501C1F880013AE094486A
:1032C000844206D10120934A02EB8501C1F88001B6
:1032D00030E09148844206D10120904A02EB8501FA
:1032E000C1F8800126E08E48844206D101208D4A33
:1032F00002EB8501C1F880011CE08B48844206D1B5
:1033000001208A4A02EB8501C1F8800112E0884859
:10331000844206D10120874A02EB8501C1F8800171
:1033200008E08548844205D10120844A02EB8501EA
:10333000C1F8800100BF012009F0C0F900BF724848
:10334000864206D10120714A02EB8701C1F8800153
:103350003AE06F48864206D101206E4A02EB8701AF
:10336000C1F8800130E06C48864206D101206B4AEA
:1033700002EB8701C1F8800126E06948864206D148
:103380000120684A02EB8701C1F880011CE0664811
:10339000864206D10120654A02EB8701C1F880010F
:1033A00012E06348864206D10120624A02EB87019F
:1033B000C1F8800108E06048864205D101205F4ADB
:1033C00002EB8701C1F8800100BF012009F076F906
:1033D00098E009F1010000F0FF09B9F1FA0F05DDED
:1033E0004046FFF7BBFD0120BDE8F08700BF46481F
:1033F000844205D1454901EB8500D0F800A134E0B5
:103400004348844205D1434901EB8500D0F800A12F
:103410002BE04148844205D1404901EB8500D0F8BA
:1034200000A122E03E48844205D13E4901EB8500DF
:10343000D0F800A119E03C48844205D13B4901EB9A
:103440008500D0F800A110E03948844205D13949FF
:1034500001EB8500D0F800A107E03748844204D191
:10346000364901EB8500D0F800A100BFBAF1000F8A
:1034700048D100BF2448864206D10020234A02EBEF
:103480008701C1F880013AE02148864206D1002038
:10349000204A02EB8701C1F8800130E01E488642D5
:1034A00006D100201D4A02EB8701C1F8800126E009
:1034B0001B48864206D100201A4A02EB8701C1F858
:1034C00080011CE01848864206D10020174A02EB12
:1034D0008701C1F8800112E01548864206D100201C
:1034E000144A02EB8701C1F8800108E012488642C5
:1034F00005D10020114A02EB8701C1F8800100BF0D
:10350000002071E765E7000000080140000021424B
:10351000000C0140008021420010014000002242C6
:1035200000140140008022420018014000002342A4
:10353000001C014000802342002001400000244282
:1035400004E00AF047F90A2009F098F8F9E710B505
:103550000446204609F04EFD10BD10B50446A18872
:103560002068FEF7D7F810BD10B50446A179206891
:1035700009F0ECFD10BD10B504462179206809F072
:1035800037FE10BD10B504462179206809F062FEAF
:1035900010BD000092B04FF6FF7000F085F909E110
:1035A0001020C8210022CDE90102CDE903104FF619
:1035B000FF704FF4784380A2142100902320FEF77F
:1035C00068FB83498868FDF7A9F804460D468049E1
:1035D0004868FDF7A3F8064632460B467DA105A8CC
:1035E000CDE9004507F0B4FC1020C8210022CDE948
:1035F0000102CDE903104FF6FF701F2305AA3C21FD
:1036000000901420FEF745FB7149C868FDF786F865
:10361000044622460B4676A105A807F099FC102027
:10362000C8210022CDE90102CDE903104FF6FF7059
:103630001F2305AA552100901420FEF72AFB644899
:1036400000786F4951F820206EA105A807F080FC92
:103650001020C8210022CDE90102CDE903104FF668
:10366000FF701F2305AA6E2100901420FEF711FBA6
:1036700057484078684951F8202068A105A807F00C
:1036800067FC1020C8210022CDE90102CDE903101A
:103690004FF6FF701F2305AA872100901420FEF724
:1036A000F8FA4B490869FDF739F8044622460B46FB
:1036B00060A105A807F04CFC1020C8210022CDE92C
:1036C0000102CDE903104FF6FF701F2305AAA021C8
:1036D00000901420FEF7DDFA3D494869FDF71EF819
:1036E000044622460B4659A105A807F031FC1020DC
:1036F000C8210022CDE90102CDE903104FF6FF7089
:103700001F2305AAB92100901420FEF7C2FA5448DD
:103710005449097850F8212053A105A807F018FC56
:103720001020C8210022CDE90102CDE903104FF697
:10373000FF701F2305AAD22100901420FEF7A9FADA
:103740002348006A4FF47A71B0FBF1F422464BA192
:1037500005A807F0FDFB1020C8210022CDE90102D9
:10376000CDE903104FF6FF701F2305AAEB2100904F
:103770001420FEF78EFA1648406A4FF47A71B0FBB7
:10378000F1F4224642A105A807F0E2FB1020C8216F
:103790000022CDE90102CDE903104FF6FF701F238F
:1037A00005AA4FF4827100901420FEF772FAC82027
:1037B00008F064FFF4E6000053797374656D204DE2
:1037C000657373616765283230306D7329000000BE
:1037D000CC30002054656D702668756D693A252ED1
:1037E0003166204320252E3166202525202000002B
:1037F0004761733A252E31662070706D20200000DD
:103800002404002052616E6765686F6F644D6F64B9
:10381000653A257320200000340400204D6F746F3A
:103820007253706565644C6576656C3A257320202B
:103830000000000057696E64537065656450574D11
:103840003A252E3166252520200000004D6F746F2B
:103850007252504D3A252E30662020202000000064
:103860003C040020200400204175746F4D6F646596
:1038700053746174653A2573202000004175746F9C
:103880004D6F6465436E743A256473202000000018
:10389000436F6F6B696E674576656E74436E743AFD
:1038A000256473202000000070B5044600261948E6
:1038B0000588408845431748808846F604018842B9
:1038C00016D114488079012812D10020114988713D
:1038D0002A2048812B2088810021084605F02CF8F9
:1038E00001200C4988712B2048812A20888103E01F
:1038F0000021084605F020F806480089064908809E
:10390000002603E00448801C0480761CAE42F9D3F4
:1039100070BD000064300020FE07006C10B5044646
:10392000002C73D179498871F02008804FF4A07081
:1039300048800846808849F24131884211D0734856
:10394000808846F6040188420BD07048808845F292
:103950001031884205D06D48808849F288418842FC
:1039600020D12C20694908812A2048812B20888178
:103970000846808846F6040188420BD06348808858
:1039800045F21031884205D06048808849F288416C
:10399000884206D14FF4A0705C4908804FF4F07063
:1039A0004880AEE05948808845F21051884210D1D5
:1039B0004FF43050554908814FF4285048814FF456
:1039C0002C5088814FF4F07008804FF44870488084
:1039D00097E04E48808841F6631188420DD12C2033
:1039E0004A4908812B2048812A2088814FF4F070B1
:1039F00008804FF44870488083E0222043490881C2
:103A000020204881212088817BE0FFE701203F4979
:103A100088714FF4A0700880F020488008468088A4
:103A200049F2413188420BD03848808845F2103144
:103A3000884205D03548808849F28841884207D1BC
:103A40002C20324908812A2048812B2088813FE0A0
:103A50002E48808846F60401884207D12C202B4945
:103A600008812B2048812A20888131E027488088DE
:103A700045F21051884210D14FF43050234908814B
:103A80004FF4285048814FF42C5088814FF44870EF
:103A900008804FF4F07048801AE01C48808841F696
:103AA000631188420DD12C20184908812A204881B1
:103AB0002B2088814FF4487008804FF4F0704880C4
:103AC00006E0222011490881212048812020888198
:103AD0000E48808846F6040188420BD00B48808847
:103AE00045F21031884205D00848808849F2884163
:103AF000884206D14FF4F070044908804FF4A0705A
:103B000048800348007804F0A9FD10BD643000200F
:103B1000D801002000B597B001214FF4B47005F032
:103B200019FB0020169003208DF85A0018208DF8FC
:103B30005B004CF23370ADF8580016A92348FDF72E
:103B40002DFD4FF68070ADF8580016A92048FDF7FE
:103B500025FD41F20100ADF8580016A91D48FDF7FA
:103B60001DFD0121080205F0C5FA0120009000208A
:103B700001900F2002900020039004900590069081
:103B800006200790002008900820099010200A9035
:103B900000200B900C900D900E900F904FF48050E1
:103BA00010900020119012901390CDF850D00090FA
:103BB00003200290CDF854D007A8FDF727FC01217F
:103BC0000620FDF709FC17B000BD000000140140FD
:103BD000001801400020014010B5322008F04EFDD1
:103BE00000BF0020FE490880052008F067FDFC4862
:103BF000801C0088FB49888000BF08468088FF2819
:103C00000ADB084680884FF6FF71884204D0F548E9
:103C10008088B0F5134F7DD1D320F1490880881CEE
:103C20000088F0498880EE48801C00888880EC4835
:103C3000801C00888880084680884FF6FF7101EA62
:103C40000020E849888008468088E549891C098861
:103C50000843E44988800846808849F24131884217
:103C600058D0BF20DE490880881C0088DD49888044
:103C7000DB48801C00888880D948801C00888880A8
:103C8000D748801C00888880084680884FF6FF71DE
:103C900001EA0020D349888008468088D049891CE1
:103CA00009880843CF4988800846808846F6040181
:103CB00088427CD0D420CA490880881C0088C94921
:103CC0008880C748801C00888880C548801C008880
:103CD0008880084680884FF6FF7101EA0020C149BC
:103CE000888008468088BE49891C09880843BD49E8
:103CF00088800846808845F21031884257D04FF4BA
:103D00005A40B7490880881C0088B64988804FF41B
:103D10005B4000E04BE0B2490880881C0088B14954
:103D20008880084680884FF6FF7101EA0020AD497F
:103D300088804FF45C40AA490880AA488088891C82
:103D400009880843A749888008468088B0F5004F55
:103D500002D145F210508880A248808845F2105167
:103D6000884224D0A1209E490880881C00889D4953
:103D700088809B48801C00888880084680884FF691
:103D8000FF7101EA0020974988800846808894499D
:103D9000891C09880843934988800846808845F231
:103DA0006171884203D141F663108E4988808D4845
:103DB000808849F2413188427ED1CF2088490880ED
:103DC0000020891C0880C120088030200880ED2058
:103DD000891E08806420891C088003200880122026
:103DE000088081200880E820891E08808520891CA1
:103DF0000880102008807A200880CB20891E088047
:103E00003920891C08802C2008800020088034205C
:103E1000088002200880F720891E08802020891C45
:103E20000880EA20891E08800020891C08800880FC
:103E3000C020891E08801B20891C0880C120891E83
:103E400008800120891C0880C520891E0880302038
:103E5000891C08800880C720891E0880B720891C1B
:103E600008803620891E08804820891C08803A2056
:103E7000891E08805520891C0880B120891E088071
:103E80000020891C08801A200880B620891E08801E
:103E90000A20891C0880A2200880F220891E088040
:103EA0000020891C08802620891E08800120891C8A
:103EB0000880E020891E00E05DE008800F20891C5A
:103EC00008802A20088028200880082008800E20EA
:103ED00008800820088054200880A92008804320FA
:103EE00008800A2008800F200880002008800880B1
:103EF00008800880E120891E08800020891C088035
:103F000015200880172008800720088011200880CD
:103F1000062008802B200880562008803C2008803E
:103F200005200880102008800F2008803F2008808E
:103F300008800F2008802B20891E08800020891C03
:103F400008800880012008803F2008802A20891EE0
:103F500008800020891C088008800880EF200880E5
:103F60001120891E0880782008F088FB29201C4930
:103F7000088004F05ABB1B48808846F6040188423A
:103F80007ED1112016490880142008F077FBD0203C
:103F9000134908800720891C0880422008801D20C2
:103FA0000880D120891E08800020891C08801A20E2
:103FB000088009200880D220891E08800120891CE1
:103FC000088022200880C020891E08801020891CBB
:103FD00008803B200880002008800220088003E041
:103FE000FE07006C6430002011200880C520891E67
:103FF00008800320891C0880C820891E08800020B2
:10400000891C088025200880212008800520088040
:10401000002008800A20088065200880252008806C
:1040200077200880502008800F200880002008801A
:10403000F820891E08800120891C0880FE20891E26
:1040400008800020891C0880022008802020891E0A
:104050000880362008800820891C08803A20891EA4
:1040600008805520891C08802B20891E088000208C
:10407000891C08800880012008803F20088000E01B
:1040800011E02A20891E08800020891C08800880F1
:1040900001200880DF200880782008F0EFFA29202E
:1040A000FE49088065E7FE48808845F21031884265
:1040B00040F00D85ED20F94908800120891C088019
:1040C000FE200880EE20891E0880DE20891C0880E2
:1040D00021200880F120891E08800120891C088089
:1040E000DF20891E08801020891C0880C420891EBA
:1040F00008808F20891C0880C620891E0880002027
:10410000891C0880E220088008800880BF20891E62
:104110000880AA20891C0880B020891E08800D20F4
:10412000891C0880002008800D200880002008805D
:1041300011200880002008801920088000200880B5
:1041400021200880002008802D2008800020088081
:104150003D200880002008805D2008800020088025
:104160005D20088000200880B120891E0880802002
:10417000891C0880002008808B200880002008808F
:104180009620088000200880B220891E0880002028
:10419000891C0880088002200880002008800320F5
:1041A000088000200880B320891E08800020891C18
:1041B00008800880088008800880088008800880BF
:1041C00008800880088008800880088008800880AF
:1041D000088008800880088008800880088008809F
:1041E000B420891E08808B20891C0880002008804C
:1041F0009620088000200880A120088000200880E8
:10420000B520891E08800220891C088000200880B3
:1042100003200880002008800420088000200880F7
:10422000B620891E08800020891C08800880B720DD
:10423000891E08800020891C088008803F20088093
:10424000002008805E20088000200880642008800C
:10425000002008808C20088000200880AC20088086
:1042600000200880DC200880002008807020088062
:10427000002008809020088000200880EB20088023
:1042800000200880DC20088000200880B820891EDB
:1042900008800020891C0880088008800880088029
:1042A000088008800880BA20891E08802420891C84
:1042B00008800020088008800880C120891E0880AE
:1042C0002020891C088000200880542008800020BD
:1042D0000880FF20088000200880C220891E0880F6
:1042E0000A20891C08800020088004200880002003
:1042F0000880C320891E08803C20891C088000207B
:1043000008803A200880002008803920088000209A
:10431000088037200880002008803C20088000208A
:104320000880362008800020088032200880002085
:1043300008802F200880002008802C200880002082
:10434000088029200880002008802620088000207E
:104350000880242008800020088024200880002075
:10436000088023200880002008803C20088000204E
:104370000880362008800020088032200880002035
:1043800008802F200880002008802C200880002032
:10439000088029200880002008802620088000202E
:1043A0000880242008800020088024200880002025
:1043B00008802320088000200880C420891E0880EF
:1043C0006220891C088000200880052008800020C9
:1043D00008808420088000200880F02008800020C9
:1043E00008801820088000200880A4200880002071
:1043F00008801820088000200880502008800020B5
:1044000008800C20088000200880172008800020E9
:1044100008809520088000200880F3200880002074
:104420000880E620088000200880C520891E0880BA
:104430003220891C08800020088044200880002049
:1044400008806520088000200880762008800020F1
:1044500008808820088000200880C620891E0880E7
:104460002020891C08800020088017200880002058
:1044700008800120088000200880C720891E08804D
:104480000020891C0880088008800880C820891EB8
:1044900008800020891C0880088003E0FE07006C6B
:1044A0006430002008800880C920891E0880002010
:1044B000891C08800880088008800880088008809F
:1044C00008800880088008800880088008800880AC
:1044D0000880E020891E08801620891C08800020A2
:1044E00008801C20088000200880212008800020EF
:1044F00008803620088000200880462008800020A0
:104500000880522008800020088064200880002055
:1045100008807A200880002008808B2008800020F6
:1045200008809920088000200880A82008800020AA
:104530000880B920088000200880C420088000205E
:104540000880CA20088000200880D220088000202F
:104550000880D920088000200880E0200880002002
:104560000880F320088000200880E120891E088050
:104570001620891C0880002008801C20088000204C
:104580000880222008800020088036200880002033
:1045900008804520088000200880522008800020E4
:1045A000088064200880002008807A20088000208D
:1045B00008808B2008800020088099200880002037
:1045C0000880A820088000200880B92008800020EA
:1045D0000880C420088000200880CA2008800020AD
:1045E0000880D220088000200880D8200880002081
:1045F0000880E020088000200880F3200880002048
:104600000880E220891E08800520891C088000207F
:1046100008800B200880002008801B2008800020D4
:104620000880342008800020088044200880002072
:1046300008804F200880002008806120088000202A
:1046400008807920088000200880882008800020C9
:1046500008809720088000200880A620088000207D
:104660000880B720088000200880C2200880002031
:104670000880C720088000200880D1200880002002
:104680000880D620088000200880DD2008800020D7
:104690000880F320088000200880E320891E08801D
:1046A0000520891C0880002008800A20088000203E
:1046B00008801C200880002008803320088000200B
:1046C00008804420088000200880502008800020B6
:1046D0000880622008800020088078200880002060
:1046E000088088200880002008809720088000200B
:1046F0000880A620088000200880B72008800020BD
:104700000880C220088000200880C7200880002080
:104710000880D120088000200880D5200880002053
:104720000880DD20088000200880F3200880002019
:104730000880E420891E08800120891C0880002050
:1047400008800120088000200880022008800020C6
:1047500008802A200880002008803C200880002053
:1047600008804B200880002008805D200880002001
:1047700008807420088000200880842008800020A1
:1047800008809320088000200880A2200880002054
:104790000880B320088000200880BE200880002008
:1047A0000880C420088000200880CD2008800020D8
:1047B0000880D320088000200880DD2008800020A9
:1047C0000880F320088000200880E520891E0880EA
:1047D0000020891C0880088008800880022008804A
:1047E0000020088029200880002008803C200880C4
:1047F000002008804B200880002008805D20088071
:104800000020088074200880002008808420088010
:10481000002008809320088000200880A2200880C3
:1048200000200880B320088000200880BE20088077
:1048300000200880C420088000200880CD20088047
:1048400000200880D320088000200880DC20088019
:1048500000200880F320088000200880E620891EC0
:1048600008801120891C08800020088034200880DE
:1048700000200880562008800020088076200880CC
:1048800000200880772008800020088066200880AB
:104890000020088088200880002008809920088057
:1048A00000200880BB200880002008809920088014
:1048B000002008806620088000200880552008809D
:1048C00000200880552008800020088045200880AE
:1048D00000200880432008800020088044200880B1
:1048E00000200880E720891E08803220891C08806B
:1048F000002008805520088000200880762008804D
:10490000002008806620088000200880672008803A
:104910000020088067200880002008808720088009
:10492000002008809920088000200880BB20088093
:1049300000200880992008800020088077200880C7
:10494000002008804420088000200880562008802D
:104950000020088023200880002008803320088061
:10496000002008804520088000200880E820891E5B
:1049700008800020891C0880088099200880002079
:104980000880872008800020088088200880002078
:10499000088077200880002008806620088000209A
:1049A00008808820088000200880AA200880002035
:1049B0000880BB2008800020088099200880002003
:1049C000088066200880002008805520088000208C
:1049D000088055200880002008804420088000209E
:1049E000088044200880002008805520088000208E
:1049F0000880E920891E0880AA20891C08800020E0
:104A0000088008800880891E0880AA20891C0880E8
:104A1000CF20891E08800020891C0880088008801B
:104A20000880088008800880088008800880088046
:104A3000088008800880088008800880F020891E8F
:104A400008800020891C08805020088000200880F1
:104A500008800880F320891E08800020891C0880B7
:104A6000F920891E08800620891C088010200880F3
:104A700029200880002008803A20891E08805520BF
:104A8000891C08801120891E0880642007F0F6FD2B
:104A90002920FE490880352008800020891C0880D4
:104AA0005120891E0880FF20891C08805320891E00
:104AB00008802C20891C08805520891E08808220AF
:104AC000891C08802C20891E088003F0AEBDF048A8
:104AD000808845F21051884241F0778500BF4FF43D
:104AE0007040EA4908805520891C088000BF00BF3B
:104AF0004FF20100891E0880AA20891C088000BF8F
:104B000000BF4FF20200891E08805220891C0880D5
:104B100000BF00BF4FF20300891E08800820891CD7
:104B2000088000BF00BF4FF20400891E08800120EA
:104B3000891C088000BF00BF4FF43040891E0880E8
:104B40000D20891C088000BF00BF4BF20100891EA8
:104B500008800D20891C088000BF00BF4BF20200B6
:104B6000891E08800D20891C088000BF00BF4FF4FB
:104B70003640891E08803420891C088000BF00BF91
:104B80004BF20160891E08803420891C088000BF18
:104B900000BF4BF20260891E08803420891C088007
:104BA00000BF00BF4FF43140891E08800D20891CD2
:104BB000088000BF00BF4BF20110891E08800D2045
:104BC000891C088000BF00BF4BF20210891E0880BC
:104BD0000D20891C088000BF00BF4FF43740891E9C
:104BE00008803420891C088000BF00BF4BF2017090
:104BF000891E08803420891C088000BF00BF4BF24A
:104C00000270891E08803420891C088000BF00BF04
:104C10004FF43240891E08800020891C088000BFA4
:104C200000BF4BF20120891E08800020891C0880EB
:104C300000BF00BF4BF20220891E08800020891CA3
:104C4000088000BF00BF4FF43840891E0880242030
:104C5000891C088000BF00BF4BF60100891E088038
:104C60002420891C088000BF00BF4BF60200891E6B
:104C700008802420891C088000BF00BF4FF43F40FB
:104C8000891E08800120891C088000BF00BF4FF4E6
:104C90003340891E08800F20891C088000BF00BF98
:104CA0004BF20130891E08800F20891C088000BF4C
:104CB00000BF4BF20230891E08800F20891C08803B
:104CC00000BF00BF4FF43940891E08803420891C82
:104CD000088000BF00BF4BF60110891E08803420F9
:104CE000891C088000BF00BF4BF60210891E088097
:104CF0003420891C088000BF00BF4FF43540891E56
:104D000008800820891C088000BF00BF4BF20150BA
:104D1000891E08800820891C088000BF00BF4BF254
:104D20000250891E08800820891C088000BF00BF2F
:104D30004FF44240891E08800320891C088000BF70
:104D400000BF4FF43A40891E08802420891C088047
:104D500000BF00BF4BF60120891E08802420891C5B
:104D6000088000BF00BF4BF60220891E0880242067
:104D7000891C088000BF00BF4FF43C40891E08809A
:104D80000020891C088000BF00BF4BF60140891E2F
:104D900008807820891C088000BF00BF4BF60240C5
:104DA000891E08800020891C088000BF00BF4FF4C6
:104DB0003D40891E08800020891C088000BF00BF7C
:104DC0004BF60150891E08807820891C088000BF9E
:104DD00000BF4BF60250891E08800020891C088005
:104DE00000BF00BF4FF43E40891E08800020891C90
:104DF000088000BF00BF4BF60160891E0880642058
:104E0000891C088000BF00BF4FF45140891E0880F4
:104E10000020891C088000BF00BF4DF20110891ED0
:104E200008803320891C088000BF00BF4DF20210AB
:104E3000891E08800020891C088000BF00BF4DF239
:104E40000310891E08803420891C088000BF00BF21
:104E50004DF20410891E08800020891C088000BFC4
:104E600000BF4DF20510891E08803A20891C088079
:104E700000BF00BF4DF20610891E08800020891C6B
:104E8000088000BF00BF4DF2071003E0FE07006C72
:104E900064300020891E08804A20891C088000BFD9
:104EA00000BF4DF20810891E08800020891C088070
:104EB00000BF00BF4DF20910891E08805C20891CCC
:104EC000088000BF00BF4DF20A10891E0880002034
:104ED000891C088000BF00BF4DF20B10891E08809E
:104EE0008120891C088000BF00BF4DF20C10891E74
:104EF00008800020891C088000BF00BF4DF20D1003
:104F0000891E0880A620891C088000BF00BF4DF2C2
:104F10000E10891E08800020891C088000BF00BF79
:104F20004DF20F10891E0880E520891C088000BF03
:104F300000BF4DF21010891E08800120891C0880D6
:104F400000BF00BF4DF21110891E08801320891C7C
:104F5000088000BF00BF4DF21210891E088001209A
:104F6000891C088000BF00BF4DF21310891E088005
:104F70005420891C088000BF00BF4DF21410891E08
:104F800008800120891C088000BF00BF4DF2151069
:104F9000891E08808220891C088000BF00BF4DF256
:104FA0001610891E08800120891C088000BF00BFE0
:104FB0004DF21710891E0880CA20891C088000BF86
:104FC00000BF4DF21810891E08800220891C08803D
:104FD00000BF00BF4DF21910891E08800020891CF7
:104FE000088000BF00BF4DF21A10891E0880022001
:104FF000891C088000BF00BF4DF21B10891E08806D
:105000000120891C088000BF00BF4DF21C10891EC2
:1050100008800220891C088000BF00BF4DF21D10CF
:10502000891E08803420891C088000BF00BF4DF213
:105030001E10891E08800220891C088000BF00BF46
:105040004DF21F10891E08806720891C088000BF50
:1050500000BF4DF22010891E08800220891C0880A4
:1050600000BF00BF4DF22110891E08808420891CDA
:10507000088000BF00BF4DF22210891E0880022068
:10508000891C088000BF00BF4DF22310891E0880D4
:10509000A420891C088000BF00BF4DF22410891E87
:1050A00008800220891C088000BF00BF4DF2251037
:1050B000891E0880B720891C088000BF00BF4DF200
:1050C0002610891E08800220891C088000BF00BFAE
:1050D0004DF22710891E0880CF20891C088000BF50
:1050E00000BF4DF22810891E08800220891C08800C
:1050F00000BF00BF4DF22910891E0880DE20891CE8
:10510000088000BF00BF4DF22A10891E08800220CF
:10511000891C088000BF00BF4DF22B10891E08803B
:10512000F220891C088000BF00BF4DF22C10891EA0
:1051300008800220891C088000BF00BF4DF22D109E
:10514000891E0880FE20891C088000BF00BF4DF228
:105150002E10891E08800320891C088000BF00BF14
:105160004DF22F10891E08801020891C088000BF76
:1051700000BF4DF23010891E08800320891C088072
:1051800000BF00BF4DF23110891E08803320891CFA
:10519000088000BF00BF4DF23210891E0880032036
:1051A000891C088000BF00BF4DF23310891E0880A3
:1051B0006D20891C088000BF00BF4FF45240891E3B
:1051C00008800020891C088000BF00BF4DF201202C
:1051D000891E08803320891C088000BF00BF4DF263
:1051E0000220891E08800020891C088000BF00BFA3
:1051F0004DF20320891E08803420891C088000BFDE
:1052000000BF4DF20420891E08800020891C088000
:1052100000BF00BF4DF20520891E08803A20891C7E
:10522000088000BF00BF4DF20620891E08800020C4
:10523000891C088000BF00BF4DF20720891E08802E
:105240004A20891C088000BF00BF4DF20820891E3B
:1052500008800020891C088000BF00BF4DF2092093
:10526000891E08805C20891C088000BF00BF4DF2A9
:105270000A20891E08800020891C088000BF00BF0A
:105280004DF20B20891E08808120891C088000BFF8
:1052900000BF4DF20C20891E08800020891C088068
:1052A00000BF00BF4DF20D20891E0880A620891C7A
:1052B000088000BF00BF4DF20E20891E088000202C
:1052C000891C088000BF00BF4DF20F20891E088096
:1052D000E520891C088000BF00BF4DF21020891E08
:1052E00008800120891C088000BF00BF4DF21120FA
:1052F000891E08801320891C088000BF00BF4DF262
:105300001220891E08800120891C088000BF00BF70
:105310004DF21320891E08805420891C088000BF8C
:1053200000BF4DF21420891E08800120891C0880CE
:1053300000BF00BF4DF21520891E08808220891C05
:10534000088000BF00BF4DF21620891E0880012092
:10535000891C088000BF00BF4DF21720891E0880FD
:10536000CA20891C088000BF00BF4DF21820891E8A
:1053700008800220891C088000BF00BF4DF2192060
:10538000891E08800020891C088000BF00BF4DF2E4
:105390001A20891E08800220891C088000BF00BFD7
:1053A0004DF21B20891E08800120891C088000BF47
:1053B00000BF4DF21C20891E08800220891C088035
:1053C00000BF00BF4DF21D20891E08803420891CBB
:1053D000088000BF00BF4DF21E20891E08800220F9
:1053E000891C088000BF00BF4DF21F20891E088065
:1053F0006720891C088000BF00BF4DF22020891E55
:1054000008800220891C088000BF00BF4DF22120C7
:10541000891E08808420891C088000BF00BF4DF2CF
:105420002220891E08800220891C088000BF00BF3E
:105430004DF22320891E0880A420891C088000BF0B
:1054400000BF4DF22420891E08800220891C08809C
:1054500000BF00BF4DF22520891E0880B720891C9F
:10546000088000BF00BF4DF22620891E0880022060
:10547000891C088000BF00BF4DF22720891E0880CC
:10548000CF20891C088000BF00BF4DF22820891E54
:1054900008800220891C088000BF00BF4DF229202F
:1054A000891E0880DE20891C088000BF00BF4DF2E5
:1054B0002A20891E08800220891C088000BF00BFA6
:1054C0004DF22B20891E0880F220891C088000BF25
:1054D00000BF4DF22C20891E08800220891C088004
:1054E00000BF00BF4DF22D20891E0880FE20891CC0
:1054F000088000BF00BF4DF22E20891E08800320C7
:10550000891C088000BF00BF4DF22F20891E088033
:105510001020891C088000BF00BF4DF23020891E7A
:1055200008800320891C088000BF00BF4DF2312095
:10553000891E08803320891C088000BF00BF4DF2FF
:105540003220891E08800320891C088000BF00BF0C
:105550004DF23320891E08806D20891C088000BF11
:1055600000BF4FF45340891E08800020891C08802A
:1055700000BF00BF4DF20130891E08803320891C16
:10558000088000BF00BF4DF20230891E0880002055
:10559000891C088000BF00BF4DF20330891E0880BF
:1055A0003420891C088000BF00BF4DF20430891EE2
:1055B00008800020891C088000BF00BF4DF2053024
:1055C000891E08803A20891C088000BF00BF4DF268
:1055D0000630891E08800020891C088000BF00BF9B
:1055E0004DF20730891E08804A20891C088000BFC0
:1055F00000BF4DF20830891E08800020891C0880F9
:1056000000BF00BF4DF20930891E08805C20891C54
:10561000088000BF00BF4DF20A30891E08800020BC
:10562000891C088000BF00BF4DF20B30891E088026
:105630008120891C088000BF00BF4DF20C30891EFC
:1056400008800020891C088000BF00BF4DF20D308B
:10565000891E0880A620891C088000BF00BF4DF26B
:105660000E30891E08800020891C088000BF00BF02
:105670004DF20F30891E0880E520891C088000BF8C
:1056800000BF4DF21030891E08800120891C08805F
:1056900000BF00BF4DF21130891E08801320891C05
:1056A000088000BF00BF4DF21230891E0880012023
:1056B000891C088000BF00BF4DF21330891E08808E
:1056C0005420891C088000BF00BF4DF21430891E91
:1056D00008800120891C088000BF00BF4DF21530F2
:1056E000891E08808220891C088000BF00BF4DF2FF
:1056F0001630891E08800120891C088000BF00BF69
:105700004DF21730891E0880CA20891C088000BF0E
:1057100000BF4DF21830891E08800220891C0880C5
:1057200000BF00BF4DF21930891E08800020891C7F
:10573000088000BF00BF4DF21A30891E0880022089
:10574000891C088000BF00BF4DF21B30891E0880F5
:105750000120891C088000BF00BF4DF21C30891E4B
:1057600008800220891C088000BF00BF4DF21D3058
:10577000891E08803420891C088000BF00BF4DF2BC
:105780001E30891E08800220891C088000BF00BFCF
:105790004DF21F30891E08806720891C088000BFD9
:1057A00000BF4DF22030891E08800220891C08802D
:1057B00000BF00BF4DF22130891E08808420891C63
:1057C000088000BF00BF4DF22230891E08800220F1
:1057D000891C088000BF00BF4DF22330891E08805D
:1057E000A420891C088000BF00BF4DF22430891E10
:1057F00008800220891C088000BF00BF4DF22530C0
:10580000891E0880B720891C088000BF00BF4DF2A8
:105810002630891E08800220891C088000BF00BF36
:105820004DF22730891E0880CF20891C088000BFD8
:1058300000BF4DF22830891E08800220891C088094
:1058400000BF00BF4DF22930891E0880DE20891C70
:10585000088000BF00BF4DF22A30891E0880022058
:10586000891C088000BF00BF4DF22B30891E0880C4
:10587000F220891C088000BF00BF4DF22C30891E29
:1058800008800220891C088000BF00BF4DF22D3027
:10589000891E0880FE20891C088000BF00BF4DF2D1
:1058A0002E30891E08800320891C088000BF00BF9D
:1058B0004DF22F30891E08801020891C088000BFFF
:1058C00000BF4DF23030891E08800320891C0880FB
:1058D00000BF00BF4DF23130891E08803320891C83
:1058E000088000BF00BF4DF23230891E08800320BF
:1058F000891C088000BF00BF4DF23330891E08802C
:105900006D20891C088000BF00BF4FF45440891EE1
:1059100008800020891C088000BF00BF4DF20140B4
:10592000891E08803320891C088000BF00BF4DF20B
:105930000240891E08800020891C088000BF00BF2B
:105940004DF20340891E08803420891C088000BF66
:1059500000BF4DF20440891E08800020891C088089
:1059600000BF00BF4DF20540891E08803A20891C07
:10597000088000BF00BF4DF20640891E088000204D
:10598000891C088000BF00BF4DF20740891E0880B7
:105990004A20891C088000BF00BF4DF20840891EC4
:1059A00008800020891C088000BF00BF4DF209401C
:1059B000891E08805C20891C088000BF00BF4DF252
:1059C0000A40891E08800020891C088000BF00BF93
:1059D0004DF20B40891E08808120891C088000BF81
:1059E00000BF4DF20C40891E08800020891C0880F1
:1059F00000BF00BF4DF20D40891E0880A620891C03
:105A0000088000BF00BF4DF20E40891E08800020B4
:105A1000891C088000BF00BF4DF20F40891E08801E
:105A2000E520891C088000BF00BF4DF21040891E90
:105A300008800120891C088000BF00BF4DF2114082
:105A4000891E08801320891C088000BF00BF4DF20A
:105A50001240891E08800120891C088000BF00BFF9
:105A60004DF21340891E08805420891C088000BF15
:105A700000BF4DF21440891E08800120891C088057
:105A800000BF00BF4DF21540891E08808220891C8E
:105A9000088000BF00BF4DF21640891E088001201B
:105AA000891C088000BF00BF4DF21740891E088086
:105AB000CA20891C088000BF00BF4DF21840891E13
:105AC00008800220891C088000BF00BF4DF21940E9
:105AD000891E08800020891C088000BF00BF4DF28D
